{
  "address": "0x68e6c556d0Bd69a17763B75c98243EE4f6622889",
  "abi": [
    {
      "inputs": [
        {
          "internalType": "uint256",
          "name": "p",
          "type": "uint256"
        }
      ],
      "stateMutability": "nonpayable",
      "type": "constructor"
    },
    {
      "inputs": [],
      "name": "latestAnswer",
      "outputs": [
        {
          "internalType": "uint256",
          "name": "",
          "type": "uint256"
        }
      ],
      "stateMutability": "view",
      "type": "function"
    },
    {
      "inputs": [],
      "name": "price",
      "outputs": [
        {
          "internalType": "uint256",
          "name": "",
          "type": "uint256"
        }
      ],
      "stateMutability": "view",
      "type": "function"
    },
    {
      "inputs": [
        {
          "internalType": "uint256",
          "name": "_price",
          "type": "uint256"
        }
      ],
      "name": "setPrice",
      "outputs": [],
      "stateMutability": "nonpayable",
      "type": "function"
    }
  ],
  "transactionHash": "0x4730ed488788c1ffddeb70a861e177bce39aed441bb46573f3c944171997cc0f",
  "args": [
    100
  ],
  "numDeployments": 1,
  "solcInputHash": "8303409a02a105fdd59990c86fb1dc97",
  "bytecode": "0x608060405234801561001057600080fd5b5060405161011d38038061011d83398101604081905261002f91610037565b600055610050565b60006020828403121561004957600080fd5b5051919050565b60bf8061005e6000396000f3fe6080604052348015600f57600080fd5b5060043610603c5760003560e01c806350d25bcd14604157806391b7f5ed146057578063a035b1fe146069575b600080fd5b6000545b60405190815260200160405180910390f35b606760623660046071565b600055565b005b604560005481565b600060208284031215608257600080fd5b503591905056fea2646970667358221220449cdb7f71c7b9fd0a839e2e6d579c2f12b703c0f5c83cae84060f53bb9cb92a64736f6c63430008110033",
  "devdoc": {
    "kind": "dev",
    "methods": {},
    "version": 1
  },
  "userdoc": {
    "kind": "user",
    "methods": {},
    "version": 1
  },
  "storageLayout": {
    "storage": [
      {
        "astId": 3875,
        "contract": "contracts/testContract.sol:FakePriceProvider",
        "label": "price",
        "offset": 0,
        "slot": "0",
        "type": "t_uint256"
      }
    ],
    "types": {
      "t_uint256": {
        "encoding": "inplace",
        "label": "uint256",
        "numberOfBytes": "32"
      }
    }
  }
}