{
  "address": "0xC365D27D83499031CE633D266bD320ab72Ca4091",
  "abi": [
    {
      "inputs": [
        {
          "internalType": "contract AggregatorInterface",
          "name": "_priceProvider",
          "type": "address"
        }
      ],
      "stateMutability": "nonpayable",
      "type": "constructor"
    },
    {
      "anonymous": false,
      "inputs": [
        {
          "indexed": true,
          "internalType": "uint256",
          "name": "id",
          "type": "uint256"
        },
        {
          "indexed": true,
          "internalType": "address",
          "name": "account",
          "type": "address"
        },
        {
          "indexed": false,
          "internalType": "uint256",
          "name": "settlementFee",
          "type": "uint256"
        },
        {
          "indexed": false,
          "internalType": "uint256",
          "name": "totalFee",
          "type": "uint256"
        }
      ],
      "name": "Create",
      "type": "event"
    },
    {
      "anonymous": false,
      "inputs": [
        {
          "indexed": true,
          "internalType": "uint256",
          "name": "id",
          "type": "uint256"
        },
        {
          "indexed": false,
          "internalType": "uint256",
          "name": "profit",
          "type": "uint256"
        }
      ],
      "name": "Exercise",
      "type": "event"
    },
    {
      "anonymous": false,
      "inputs": [
        {
          "indexed": true,
          "internalType": "uint256",
          "name": "id",
          "type": "uint256"
        },
        {
          "indexed": false,
          "internalType": "uint256",
          "name": "premium",
          "type": "uint256"
        }
      ],
      "name": "Expire",
      "type": "event"
    },
    {
      "anonymous": false,
      "inputs": [
        {
          "indexed": true,
          "internalType": "address",
          "name": "previousOwner",
          "type": "address"
        },
        {
          "indexed": true,
          "internalType": "address",
          "name": "newOwner",
          "type": "address"
        }
      ],
      "name": "OwnershipTransferred",
      "type": "event"
    },
    {
      "inputs": [
        {
          "internalType": "uint256",
          "name": "period",
          "type": "uint256"
        },
        {
          "internalType": "uint256",
          "name": "amount",
          "type": "uint256"
        },
        {
          "internalType": "uint256",
          "name": "strike",
          "type": "uint256"
        }
      ],
      "name": "create",
      "outputs": [
        {
          "internalType": "uint256",
          "name": "optionID",
          "type": "uint256"
        }
      ],
      "stateMutability": "payable",
      "type": "function"
    },
    {
      "inputs": [
        {
          "internalType": "uint256",
          "name": "optionID",
          "type": "uint256"
        }
      ],
      "name": "exercise",
      "outputs": [],
      "stateMutability": "nonpayable",
      "type": "function"
    },
    {
      "inputs": [
        {
          "internalType": "uint256",
          "name": "period",
          "type": "uint256"
        },
        {
          "internalType": "uint256",
          "name": "amount",
          "type": "uint256"
        },
        {
          "internalType": "uint256",
          "name": "strike",
          "type": "uint256"
        }
      ],
      "name": "fees",
      "outputs": [
        {
          "internalType": "uint256",
          "name": "total",
          "type": "uint256"
        },
        {
          "internalType": "uint256",
          "name": "settlementFee",
          "type": "uint256"
        },
        {
          "internalType": "uint256",
          "name": "strikeFee",
          "type": "uint256"
        },
        {
          "internalType": "uint256",
          "name": "periodFee",
          "type": "uint256"
        }
      ],
      "stateMutability": "view",
      "type": "function"
    },
    {
      "inputs": [],
      "name": "impliedVolRate",
      "outputs": [
        {
          "internalType": "uint256",
          "name": "",
          "type": "uint256"
        }
      ],
      "stateMutability": "view",
      "type": "function"
    },
    {
      "inputs": [
        {
          "internalType": "uint256",
          "name": "",
          "type": "uint256"
        }
      ],
      "name": "options",
      "outputs": [
        {
          "internalType": "enum FuturesOptions.State",
          "name": "state",
          "type": "uint8"
        },
        {
          "internalType": "address payable",
          "name": "holder",
          "type": "address"
        },
        {
          "internalType": "uint256",
          "name": "strike",
          "type": "uint256"
        },
        {
          "internalType": "uint256",
          "name": "amount",
          "type": "uint256"
        },
        {
          "internalType": "uint256",
          "name": "premium",
          "type": "uint256"
        },
        {
          "internalType": "uint256",
          "name": "expiration",
          "type": "uint256"
        }
      ],
      "stateMutability": "view",
      "type": "function"
    },
    {
      "inputs": [],
      "name": "owner",
      "outputs": [
        {
          "internalType": "address",
          "name": "",
          "type": "address"
        }
      ],
      "stateMutability": "view",
      "type": "function"
    },
    {
      "inputs": [],
      "name": "pool",
      "outputs": [
        {
          "internalType": "contract FuturesETHPool",
          "name": "",
          "type": "address"
        }
      ],
      "stateMutability": "view",
      "type": "function"
    },
    {
      "inputs": [],
      "name": "priceProvider",
      "outputs": [
        {
          "internalType": "contract AggregatorInterface",
          "name": "",
          "type": "address"
        }
      ],
      "stateMutability": "view",
      "type": "function"
    },
    {
      "inputs": [],
      "name": "renounceOwnership",
      "outputs": [],
      "stateMutability": "nonpayable",
      "type": "function"
    },
    {
      "inputs": [
        {
          "internalType": "uint256",
          "name": "value",
          "type": "uint256"
        }
      ],
      "name": "setImpliedVolRate",
      "outputs": [],
      "stateMutability": "nonpayable",
      "type": "function"
    },
    {
      "inputs": [
        {
          "internalType": "uint256",
          "name": "value",
          "type": "uint256"
        }
      ],
      "name": "setLockupPeriod",
      "outputs": [],
      "stateMutability": "nonpayable",
      "type": "function"
    },
    {
      "inputs": [
        {
          "internalType": "address payable",
          "name": "recipient",
          "type": "address"
        }
      ],
      "name": "setSettlementFeeRecipient",
      "outputs": [],
      "stateMutability": "nonpayable",
      "type": "function"
    },
    {
      "inputs": [],
      "name": "settlementFeeRecipient",
      "outputs": [
        {
          "internalType": "address payable",
          "name": "",
          "type": "address"
        }
      ],
      "stateMutability": "view",
      "type": "function"
    },
    {
      "inputs": [
        {
          "internalType": "address",
          "name": "newOwner",
          "type": "address"
        }
      ],
      "name": "transferOwnership",
      "outputs": [],
      "stateMutability": "nonpayable",
      "type": "function"
    },
    {
      "inputs": [],
      "name": "transferPoolOwnership",
      "outputs": [],
      "stateMutability": "nonpayable",
      "type": "function"
    },
    {
      "inputs": [
        {
          "internalType": "uint256",
          "name": "optionID",
          "type": "uint256"
        }
      ],
      "name": "unlock",
      "outputs": [],
      "stateMutability": "nonpayable",
      "type": "function"
    },
    {
      "inputs": [
        {
          "internalType": "uint256[]",
          "name": "optionIDs",
          "type": "uint256[]"
        }
      ],
      "name": "unlockAll",
      "outputs": [],
      "stateMutability": "nonpayable",
      "type": "function"
    }
  ],
  "transactionHash": "0xc33a7f6ba6ab6ef49547bc3fe8c1560c2feeedc720233062e3086104cf228c3b",
  "args": [
    "0x68e6c556d0Bd69a17763B75c98243EE4f6622889"
  ],
  "numDeployments": 1,
  "solcInputHash": "9b80c2fe4fe97e292e1062fce64e63af",
  "bytecode": "0x60806040523480156200001157600080fd5b50604051620031573803806200315783398101604081905262000034916200016b565b80600162000042336200010d565b600580546001600160a01b0384166001600160a01b03198216811783558392916001600160a81b03191617600160a01b8360018111156200008757620000876200019d565b021790555050600054600180546001600160a01b0319166001600160a01b039092169190911790555061157c60035542600455604051620000c8906200015d565b604051809103906000f080158015620000e5573d6000803e3d6000fd5b50600680546001600160a01b0319166001600160a01b039290921691909117905550620001b3565b600080546001600160a01b038381166001600160a01b0319831681178455604051919092169283917f8be0079c531659141344cd1fd0a4f28419497f9722a3daafe3b4186f6b6457e09190a35050565b611a30806200172783390190565b6000602082840312156200017e57600080fd5b81516001600160a01b03811681146200019657600080fd5b9392505050565b634e487b7160e01b600052602160045260246000fd5b61156480620001c36000396000f3fe6080604052600436106100fe5760003560e01c806396350a8511610095578063c97fe94b11610064578063c97fe94b146102a0578063ceaeeba9146102b3578063e342b598146102d3578063f2fde38b146102f3578063f53e28941461031357600080fd5b806396350a8514610220578063b07f0a4114610240578063b888879e14610260578063c771c3901461028057600080fd5b8063410fa5d9116100d1578063410fa5d9146101b65780636198e339146101cd578063715018a6146101ed5780638da5cb5b1461020257600080fd5b806316f0115b14610103578063181731dc1461014057806318f88e5b14610160578063409e220514610184575b600080fd5b34801561010f57600080fd5b50600654610123906001600160a01b031681565b6040516001600160a01b0390911681526020015b60405180910390f35b34801561014c57600080fd5b50600154610123906001600160a01b031681565b34801561016c57600080fd5b5061017660035481565b604051908152602001610137565b34801561019057600080fd5b506101a461019f36600461131b565b610353565b6040516101379695949392919061134a565b3480156101c257600080fd5b506101cb6103a8565b005b3480156101d957600080fd5b506101cb6101e836600461131b565b610449565b3480156101f957600080fd5b506101cb6105c2565b34801561020e57600080fd5b506000546001600160a01b0316610123565b34801561022c57600080fd5b506101cb61023b3660046113b3565b6105d6565b34801561024c57600080fd5b506101cb61025b36600461131b565b610613565b34801561026c57600080fd5b50600554610123906001600160a01b031681565b34801561028c57600080fd5b506101cb61029b36600461131b565b6107cf565b6101766102ae3660046113d0565b61088c565b3480156102bf57600080fd5b506101cb6102ce36600461131b565b610c2f565b3480156102df57600080fd5b506101cb6102ee3660046113fc565b610c98565b3480156102ff57600080fd5b506101cb61030e3660046113b3565b610cd7565b34801561031f57600080fd5b5061033361032e3660046113d0565b610d50565b604080519485526020850193909352918301526060820152608001610137565b6002818154811061036357600080fd5b60009182526020909120600590910201805460018201546002830154600384015460049094015460ff841695506101009093046001600160a01b031693919290919086565b6103b0610e0d565b6004546103c0906276a700611487565b42106103cb57600080fd5b6006546001600160a01b031663f2fde38b6103ee6000546001600160a01b031690565b6040516001600160e01b031960e084901b1681526001600160a01b039091166004820152602401600060405180830381600087803b15801561042f57600080fd5b505af1158015610443573d6000803e3d6000fd5b50505050565b60006002828154811061045e5761045e61149a565b90600052602060002090600502019050428160040154106104c65760405162461bcd60e51b815260206004820152601a60248201527f4f7074696f6e20686173206e6f7420657870697265642079657400000000000060448201526064015b60405180910390fd5b6000815460ff1660028111156104de576104de611334565b146105225760405162461bcd60e51b81526020600482015260146024820152734f7074696f6e206973206e6f742061637469766560601b60448201526064016104bd565b805460ff191660029081178083556040805160c0810182528381526101009092046001600160a01b0316602083015260018401549082015290820154606082015260038201546080820152600482015460a082015261058090610e67565b817f5f36a4a575e512eb69d6d28c3b0ff98cca7ba50ad5bf04e14094ad1d425e0d3182600301546040516105b691815260200190565b60405180910390a25050565b6105ca610e0d565b6105d46000610f07565b565b6105de610e0d565b6001600160a01b0381166105f157600080fd5b600180546001600160a01b0319166001600160a01b0392909216919091179055565b6000600282815481106106285761062861149a565b9060005260206000209060050201905042816004015410156106815760405162461bcd60e51b815260206004820152601260248201527113dc1d1a5bdb881a185cc8195e1c1a5c995960721b60448201526064016104bd565b805461010090046001600160a01b031633146106d25760405162461bcd60e51b815260206004820152601060248201526f2bb937b7339036b9b39739b2b73232b960811b60448201526064016104bd565b6000815460ff1660028111156106ea576106ea611334565b146107255760405162461bcd60e51b815260206004820152600b60248201526a57726f6e6720737461746560a81b60448201526064016104bd565b805460ff1916600190811782556040805160c0810190915260009161078f9190849082908152815461010090046001600160a01b0316602082015260018201546040820152600282015460608201526003820154608082015260049091015460a090910152610f57565b9050827e84fe51c7cb34b132b7b6eb5d5a87a489f8d6d284758d00a0402c1bad9a0def826040516107c291815260200190565b60405180910390a2505050565b6107d7610e0d565b624f1a0081111561082a5760405162461bcd60e51b815260206004820152601a60248201527f4c6f636b757020706572696f6420697320746f6f206c6172676500000000000060448201526064016104bd565b600654604051630c771c3960e41b8152600481018390526001600160a01b039091169063c771c390906024015b600060405180830381600087803b15801561087157600080fd5b505af1158015610885573d6000803e3d6000fd5b5050505050565b600080600061089c868686610d50565b509193509150600090506305f5e1006108b586886110d1565b6108bf91906114b0565b9050600081116109075760405162461bcd60e51b8152602060048201526013602482015272105b5bdd5b9d081a5cc81d1bdbc81cdb585b1b606a1b60448201526064016104bd565b82821061094d5760405162461bcd60e51b8152602060048201526014602482015273141c995b5a5d5b481a5cc81d1bdbc81cdb585b1b60621b60448201526064016104bd565b620151808710156109965760405162461bcd60e51b815260206004820152601360248201527214195c9a5bd9081a5cc81d1bdbc81cda1bdc9d606a1b60448201526064016104bd565b6224ea008711156109de5760405162461bcd60e51b8152602060048201526012602482015271506572696f6420697320746f6f206c6f6e6760701b60448201526064016104bd565b823414610a1b5760405162461bcd60e51b815260206004820152600b60248201526a57726f6e672076616c756560a81b60448201526064016104bd565b6000610a2f610a2a85856110e6565b6110f2565b600280546040805160c081018252600081523360208201529081018a9052606081018b9052608081018490529097509192509060a08101610a708b42611487565b9052815460018181018455600093845260209093208251600590920201805492939092839160ff1990911690836002811115610aae57610aae611334565b0217905550602082015181546001600160a01b0390911661010002610100600160a81b03199091161781556040808301516001830155606083015160028301556080830151600383015560a09092015160049091015551339086907f9acccf962da4ed9c3db3a1beedb70b0d4c3f6a69c170baca7198a74548b5ef4e90610b419087908990918252602082015260400190565b60405180910390a3610be960028681548110610b5f57610b5f61149a565b600091825260209091206040805160c081019091526005909202018054829060ff166002811115610b9257610b92611334565b6002811115610ba357610ba3611334565b8152815461010090046001600160a01b0316602082015260018201546040820152600282015460608201526003820154608082015260049091015460a090910152611163565b6001546040516001600160a01b039091169084156108fc029085906000818181858888f19350505050158015610c23573d6000803e3d6000fd5b50505050509392505050565b610c37610e0d565b6103e8811015610c935760405162461bcd60e51b815260206004820152602160248201527f496d706c696564566f6c52617465206c696d697420697320746f6f20736d616c6044820152601b60fa1b60648201526084016104bd565b600355565b8060005b8181101561044357610cc5848483818110610cb957610cb961149a565b90506020020135610449565b80610ccf816114d2565b915050610c9c565b610cdf610e0d565b6001600160a01b038116610d445760405162461bcd60e51b815260206004820152602660248201527f4f776e61626c653a206e6577206f776e657220697320746865207a65726f206160448201526564647265737360d01b60648201526084016104bd565b610d4d81610f07565b50565b6000806000806000600560009054906101000a90046001600160a01b03166001600160a01b03166350d25bcd6040518163ffffffff1660e01b8152600401602060405180830381865afa158015610dab573d6000803e3d6000fd5b505050506040513d601f19601f82011682018060405250810190610dcf91906114eb565b9050610dda8761119a565b9350610de8878988846111a7565b9150610df5878783611227565b9250610e0182846112c1565b94505093509350935093565b6000546001600160a01b031633146105d45760405162461bcd60e51b815260206004820181905260248201527f4f776e61626c653a2063616c6c6572206973206e6f7420746865206f776e657260448201526064016104bd565b6006546080820151604051634029441560e11b81526001600160a01b0390921691638052882a91610e9e9160040190815260200190565b600060405180830381600087803b158015610eb857600080fd5b505af1158015610ecc573d6000803e3d6000fd5b50506006546060840151604051636198e33960e01b81526001600160a01b039092169350636198e33992506108579160040190815260200190565b600080546001600160a01b038381166001600160a01b0319831681178455604051919092169283917f8be0079c531659141344cd1fd0a4f28419497f9722a3daafe3b4186f6b6457e09190a35050565b600080600560009054906101000a90046001600160a01b03166001600160a01b03166350d25bcd6040518163ffffffff1660e01b8152600401602060405180830381865afa158015610fad573d6000803e3d6000fd5b505050506040513d601f19601f82011682018060405250810190610fd191906114eb565b905080836040015111156110275760405162461bcd60e51b815260206004820152601860248201527f43757272656e7420707269636520697320746f6f206c6f77000000000000000060448201526064016104bd565b61105681611050856060015161104a8760400151866110e690919063ffffffff16565b906110d1565b906112cd565b6006546020850151604051633419e74d60e21b81526001600160a01b03918216600482015260248101849052929450169063d0679d3490604401600060405180830381600087803b1580156110aa57600080fd5b505af11580156110be573d6000803e3d6000fd5b505050506110cb83610e67565b50919050565b60006110dd8284611504565b90505b92915050565b60006110dd828461151b565b6000600660009054906101000a90046001600160a01b03166001600160a01b0316639ac1f394836040518263ffffffff1660e01b81526004016000604051808303818588803b15801561114457600080fd5b505af1158015611158573d6000803e3d6000fd5b509495945050505050565b60065460608201516040516337519c1960e21b81526001600160a01b039092169163dd467064916108579160040190815260200190565b60006110e06064836114b0565b600080600554600160a01b900460ff1660018111156111c8576111c8611334565b036111fd576111f66305f5e100611050846110508761104a60035461104a6111ef8d6112d9565b8e906110d1565b905061121f565b6111f66305f5e100611050856110508661104a60035461104a6111ef8d6112d9565b949350505050565b6000818311801561125557506000600554600160a01b900460ff16600181111561125357611253611334565b145b156112735761126c826110508661104a87846110e6565b90506112ba565b818310801561129f57506001600554600160a01b900460ff16600181111561129d5761129d611334565b145b156112b65761126c826110508661104a83886110e6565b5060005b9392505050565b60006110dd8284611487565b60006110dd82846114b0565b8060006112ec60026110508460016112c1565b90505b818110156110cb578061131160026110508361130b88826112cd565b906112c1565b90925090506112ef565b60006020828403121561132d57600080fd5b5035919050565b634e487b7160e01b600052602160045260246000fd5b60c081016003881061136c57634e487b7160e01b600052602160045260246000fd5b9681526001600160a01b0395909516602086015260408501939093526060840191909152608083015260a09091015290565b6001600160a01b0381168114610d4d57600080fd5b6000602082840312156113c557600080fd5b81356112ba8161139e565b6000806000606084860312156113e557600080fd5b505081359360208301359350604090920135919050565b6000806020838503121561140f57600080fd5b823567ffffffffffffffff8082111561142757600080fd5b818501915085601f83011261143b57600080fd5b81358181111561144a57600080fd5b8660208260051b850101111561145f57600080fd5b60209290920196919550909350505050565b634e487b7160e01b600052601160045260246000fd5b808201808211156110e0576110e0611471565b634e487b7160e01b600052603260045260246000fd5b6000826114cd57634e487b7160e01b600052601260045260246000fd5b500490565b6000600182016114e4576114e4611471565b5060010190565b6000602082840312156114fd57600080fd5b5051919050565b80820281158282048414176110e0576110e0611471565b818103818111156110e0576110e061147156fea26469706673582212206699f51b9f30b76e0b6c159c040d524df5457338d3f2021aa4407c61554f315a64736f6c634300081100336080604052621275006006553480156200001857600080fd5b506040518060400160405280600c81526020016b22aa24102628102a37b5b2b760a11b815250604051806040016040528060088152602001670eee4d2e8ca8aa8960c31b81525062000079620000736200009f60201b60201c565b620000a3565b600462000087838262000198565b50600562000096828262000198565b50505062000264565b3390565b600080546001600160a01b038381166001600160a01b0319831681178455604051919092169283917f8be0079c531659141344cd1fd0a4f28419497f9722a3daafe3b4186f6b6457e09190a35050565b634e487b7160e01b600052604160045260246000fd5b600181811c908216806200011e57607f821691505b6020821081036200013f57634e487b7160e01b600052602260045260246000fd5b50919050565b601f8211156200019357600081815260208120601f850160051c810160208610156200016e5750805b601f850160051c820191505b818110156200018f578281556001016200017a565b5050505b505050565b81516001600160401b03811115620001b457620001b4620000f3565b620001cc81620001c5845462000109565b8462000145565b602080601f831160018114620002045760008415620001eb5750858301515b600019600386901b1c1916600185901b1785556200018f565b600085815260208120601f198616915b82811015620002355788860151825594840194600190910190840162000214565b5085821015620002545787850151600019600388901b60f8161c191681555b5050505050600190811b01905550565b6117bc80620002746000396000f3fe6080604052600436106101bb5760003560e01c80638052882a116100ec578063ad7a672f1161008a578063dd46706411610064578063dd4670641461048b578063dd62ed3e146104ab578063ee947a7c146104cb578063f2fde38b146104e157600080fd5b8063ad7a672f14610436578063c771c3901461044b578063d0679d341461046b57600080fd5b80639ac1f394116100c65780639ac1f394146103d9578063a457c2d7146103e1578063a9059cbb14610401578063ab2f0e511461042157600080fd5b80638052882a1461037c5780638da5cb5b1461039c57806395d89b41146103c457600080fd5b806339509351116101595780636ab28bc8116101335780636ab28bc81461030557806370a082311461031b578063715018a614610351578063797be55e1461036657600080fd5b806339509351146102b0578063441a3e70146102d05780636198e339146102e357600080fd5b806321e5e2c41161019557806321e5e2c41461024157806323b872dd146102615780632e2ebe0614610281578063313ce5671461029457600080fd5b806306fdde03146101c7578063095ea7b3146101f257806318160ddd1461022257600080fd5b366101c257005b600080fd5b3480156101d357600080fd5b506101dc610501565b6040516101e9919061143a565b60405180910390f35b3480156101fe57600080fd5b5061021261020d36600461149d565b610593565b60405190151581526020016101e9565b34801561022e57600080fd5b506003545b6040519081526020016101e9565b34801561024d57600080fd5b5061023361025c3660046114c9565b6105ad565b34801561026d57600080fd5b5061021261027c3660046114e6565b610609565b61023361028f366004611527565b61062d565b3480156102a057600080fd5b50604051601281526020016101e9565b3480156102bc57600080fd5b506102126102cb36600461149d565b610786565b6102336102de366004611540565b6107a8565b3480156102ef57600080fd5b506103036102fe366004611527565b610a3b565b005b34801561031157600080fd5b5061023360075481565b34801561032757600080fd5b506102336103363660046114c9565b6001600160a01b031660009081526001602052604090205490565b34801561035d57600080fd5b50610303610a78565b34801561037257600080fd5b5061023360085481565b34801561038857600080fd5b50610303610397366004611527565b610a8c565b3480156103a857600080fd5b506000546040516001600160a01b0390911681526020016101e9565b3480156103d057600080fd5b506101dc610ac9565b610303610ad8565b3480156103ed57600080fd5b506102126103fc36600461149d565b610af2565b34801561040d57600080fd5b5061021261041c36600461149d565b610b6d565b34801561042d57600080fd5b50610233610b7b565b34801561044257600080fd5b50610233610b96565b34801561045757600080fd5b50610303610466366004611527565b610bad565b34801561047757600080fd5b5061030361048636600461149d565b610c0d565b34801561049757600080fd5b506103036104a6366004611527565b610c85565b3480156104b757600080fd5b506102336104c6366004611562565b610cde565b3480156104d757600080fd5b5061023360065481565b3480156104ed57600080fd5b506103036104fc3660046114c9565b610d09565b6060600480546105109061159b565b80601f016020809104026020016040519081016040528092919081815260200182805461053c9061159b565b80156105895780601f1061055e57610100808354040283529160200191610589565b820191906000526020600020905b81548152906001019060200180831161056c57829003601f168201915b5050505050905090565b6000336105a1818585610d82565b60019150505b92915050565b6000806105b960035490565b1115610601576105a76105cb60035490565b6105fb6105ed856001600160a01b031660009081526001602052604090205490565b6105f5610b96565b90610ea6565b90610eb9565b506000919050565b600033610617858285610ec5565b610622858585610f3f565b506001949350505050565b3360009081526009602052604081204290558061064960035490565b90506000610655610b96565b90506000821180156106675750600081115b1561068a5761068361067982346110f5565b6105fb3485610ea6565b9250610699565b610696346103e8610ea6565b92505b838310156106ee5760405162461bcd60e51b815260206004820152601d60248201527f506f6f6c3a204d696e74206c696d697420697320746f6f206c6172676500000060448201526064015b60405180910390fd5b6000831161073a5760405162461bcd60e51b8152602060048201526019602482015278141bdbdb0e88105b5bdd5b9d081a5cc81d1bdbc81cdb585b1b603a1b60448201526064016106e5565b6107443384611101565b604080513481526020810185905233917f4089141ea5e4c16575f5ebf65f1786497ea07c175846fc7745ef8d8986a4ff65910160405180910390a25050919050565b6000336105a18185856107998383610cde565b6107a391906115eb565b610d82565b60065433600090815260096020526040812054909142916107c8916111ce565b11156108165760405162461bcd60e51b815260206004820152601d60248201527f506f6f6c3a205769746864726177616c206973206c6f636b656420757000000060448201526064016106e5565b61081e610b7b565b8311156108a75760405162461bcd60e51b815260206004820152604b60248201527f506f6f6c204572726f723a204e6f7420656e6f7567682066756e6473206f6e2060448201527f74686520706f6f6c20636f6e74726163742e20506c65617365206c6f7765722060648201526a3a34329030b6b7bab73a1760a91b608482015260a4016106e5565b6108c56108b2610b96565b6105fb6108be60035490565b8690610ea6565b9050818111156109175760405162461bcd60e51b815260206004820152601d60248201527f506f6f6c3a204275726e206c696d697420697320746f6f20736d616c6c00000060448201526064016106e5565b336000908152600160205260409020548111156109765760405162461bcd60e51b815260206004820152601960248201527f506f6f6c3a20416d6f756e7420697320746f6f206c617267650000000000000060448201526064016106e5565b600081116109c25760405162461bcd60e51b8152602060048201526019602482015278141bdbdb0e88105b5bdd5b9d081a5cc81d1bdbc81cdb585b1b603a1b60448201526064016106e5565b6109cc33826111da565b604080518481526020810183905233917ff279e6a1f5e320cca91135676d9cb6e44ca8a08c0b88342bcdb1144f6511b568910160405180910390a2604051339084156108fc029085906000818181858888f19350505050158015610a34573d6000803e3d6000fd5b5092915050565b610a4361131a565b806007541015610a655760405162461bcd60e51b81526004016106e5906115fe565b600754610a7290826110f5565b60075550565b610a8061131a565b610a8a6000611374565b565b610a9461131a565b806008541015610ab65760405162461bcd60e51b81526004016106e59061169b565b600854610ac390826110f5565b60085550565b6060600580546105109061159b565b610ae061131a565b600854610aed90346111ce565b600855565b60003381610b008286610cde565b905083811015610b605760405162461bcd60e51b815260206004820152602560248201527f45524332303a2064656372656173656420616c6c6f77616e63652062656c6f77604482015264207a65726f60d81b60648201526084016106e5565b6106228286868403610d82565b6000336105a1818585610f3f565b6000610b91600754610b8b610b96565b906110f5565b905090565b6000610b91600854476110f590919063ffffffff16565b610bb561131a565b624f1a00811115610c085760405162461bcd60e51b815260206004820152601a60248201527f4c6f636b757020706572696f6420697320746f6f206c6172676500000000000060448201526064016106e5565b600655565b610c1561131a565b6001600160a01b038216610c2857600080fd5b806007541015610c4a5760405162461bcd60e51b81526004016106e59061169b565b6040516001600160a01b0383169082156108fc029083906000818181858888f19350505050158015610c80573d6000803e3d6000fd5b505050565b610c8d61131a565b6008610cb4610c9a610b96565b6105fb600a6105f5866007546111ce90919063ffffffff16565b10610cd15760405162461bcd60e51b81526004016106e5906115fe565b600754610a7290826111ce565b6001600160a01b03918216600090815260026020908152604080832093909416825291909152205490565b610d1161131a565b6001600160a01b038116610d765760405162461bcd60e51b815260206004820152602660248201527f4f776e61626c653a206e6577206f776e657220697320746865207a65726f206160448201526564647265737360d01b60648201526084016106e5565b610d7f81611374565b50565b6001600160a01b038316610de45760405162461bcd60e51b8152602060048201526024808201527f45524332303a20617070726f76652066726f6d20746865207a65726f206164646044820152637265737360e01b60648201526084016106e5565b6001600160a01b038216610e455760405162461bcd60e51b815260206004820152602260248201527f45524332303a20617070726f766520746f20746865207a65726f206164647265604482015261737360f01b60648201526084016106e5565b6001600160a01b0383811660008181526002602090815260408083209487168084529482529182902085905590518481527f8c5be1e5ebec7d5bd14f71427d1e84f3dd0314c0f7b2291e5b200ac8c7c3b925910160405180910390a3505050565b6000610eb2828461173a565b9392505050565b6000610eb28284611751565b6000610ed18484610cde565b90506000198114610f395781811015610f2c5760405162461bcd60e51b815260206004820152601d60248201527f45524332303a20696e73756666696369656e7420616c6c6f77616e636500000060448201526064016106e5565b610f398484848403610d82565b50505050565b6001600160a01b038316610fa35760405162461bcd60e51b815260206004820152602560248201527f45524332303a207472616e736665722066726f6d20746865207a65726f206164604482015264647265737360d81b60648201526084016106e5565b6001600160a01b0382166110055760405162461bcd60e51b815260206004820152602360248201527f45524332303a207472616e7366657220746f20746865207a65726f206164647260448201526265737360e81b60648201526084016106e5565b6110108383836113c4565b6001600160a01b038316600090815260016020526040902054818110156110885760405162461bcd60e51b815260206004820152602660248201527f45524332303a207472616e7366657220616d6f756e7420657863656564732062604482015265616c616e636560d01b60648201526084016106e5565b6001600160a01b0380851660008181526001602052604080822086860390559286168082529083902080548601905591517fddf252ad1be2c89b69c2b068fc378daa952ba7f163c4a11628f55a4df523b3ef906110e89086815260200190565b60405180910390a3610f39565b6000610eb28284611773565b6001600160a01b0382166111575760405162461bcd60e51b815260206004820152601f60248201527f45524332303a206d696e7420746f20746865207a65726f20616464726573730060448201526064016106e5565b611163600083836113c4565b806003600082825461117591906115eb565b90915550506001600160a01b0382166000818152600160209081526040808320805486019055518481527fddf252ad1be2c89b69c2b068fc378daa952ba7f163c4a11628f55a4df523b3ef910160405180910390a35050565b6000610eb282846115eb565b6001600160a01b03821661123a5760405162461bcd60e51b815260206004820152602160248201527f45524332303a206275726e2066726f6d20746865207a65726f206164647265736044820152607360f81b60648201526084016106e5565b611246826000836113c4565b6001600160a01b038216600090815260016020526040902054818110156112ba5760405162461bcd60e51b815260206004820152602260248201527f45524332303a206275726e20616d6f756e7420657863656564732062616c616e604482015261636560f01b60648201526084016106e5565b6001600160a01b03831660008181526001602090815260408083208686039055600380548790039055518581529192917fddf252ad1be2c89b69c2b068fc378daa952ba7f163c4a11628f55a4df523b3ef910160405180910390a3505050565b6000546001600160a01b03163314610a8a5760405162461bcd60e51b815260206004820181905260248201527f4f776e61626c653a2063616c6c6572206973206e6f7420746865206f776e657260448201526064016106e5565b600080546001600160a01b038381166001600160a01b0319831681178455604051919092169283917f8be0079c531659141344cd1fd0a4f28419497f9722a3daafe3b4186f6b6457e09190a35050565b6006546001600160a01b03841660009081526009602052604090205442916113ec91906111ce565b1115610c805760405162461bcd60e51b815260206004820152601d60248201527f506f6f6c3a205769746864726177616c206973206c6f636b656420757000000060448201526064016106e5565b600060208083528351808285015260005b818110156114675785810183015185820160400152820161144b565b506000604082860101526040601f19601f8301168501019250505092915050565b6001600160a01b0381168114610d7f57600080fd5b600080604083850312156114b057600080fd5b82356114bb81611488565b946020939093013593505050565b6000602082840312156114db57600080fd5b8135610eb281611488565b6000806000606084860312156114fb57600080fd5b833561150681611488565b9250602084013561151681611488565b929592945050506040919091013590565b60006020828403121561153957600080fd5b5035919050565b6000806040838503121561155357600080fd5b50508035926020909101359150565b6000806040838503121561157557600080fd5b823561158081611488565b9150602083013561159081611488565b809150509250929050565b600181811c908216806115af57607f821691505b6020821081036115cf57634e487b7160e01b600052602260045260246000fd5b50919050565b634e487b7160e01b600052601160045260246000fd5b808201808211156105a7576105a76115d5565b60208082526071908201527f506f6f6c204572726f723a20596f752061726520747279696e6720746f20756e60408201527f6c6f636b206d6f72652066756e6473207468616e2068617665206265656e206c60608201527f6f636b656420666f7220796f757220636f6e74726163742e20506c65617365206080820152703637bbb2b9103a34329030b6b7bab73a1760791b60a082015260c00190565b60208082526073908201527f506f6f6c204572726f723a20596f752061726520747279696e6720746f20756e60408201527f6c6f636b206d6f7265207072656d69756d73207468616e20686176652062656560608201527f6e206c6f636b656420666f722074686520636f6e74726163742e20506c65617360808201527232903637bbb2b9103a34329030b6b7bab73a1760691b60a082015260c00190565b80820281158282048414176105a7576105a76115d5565b60008261176e57634e487b7160e01b600052601260045260246000fd5b500490565b818103818111156105a7576105a76115d556fea2646970667358221220d1dbd1dff22f9cbae01faf9ca3a85ef5c35e7ed0e8e849d870561d502b3353bc64736f6c63430008110033",
  "devdoc": {
    "author": "0mllwntrmt3",
    "kind": "dev",
    "methods": {
      "constructor": {
        "params": {
          "_priceProvider": "The address of ChainLink ETH/USD price feed contract"
        }
      },
      "create(uint256,uint256,uint256)": {
        "params": {
          "amount": "Option amount",
          "period": "Option period in seconds (1 days <= period <= 4 weeks)",
          "strike": "Strike price of the option ()"
        },
        "returns": {
          "optionID": "Created option's ID"
        }
      },
      "exercise(uint256)": {
        "params": {
          "optionID": "ID of your option"
        }
      },
      "fees(uint256,uint256,uint256)": {
        "params": {
          "amount": "Option amount",
          "period": "Option period in seconds (1 days <= period <= 4 weeks)",
          "strike": "Strike price of the option"
        },
        "returns": {
          "periodFee": "Option period fee amount",
          "settlementFee": "Amount to be distributed to the token holders",
          "strikeFee": "Amount that covers the price difference in the ITM options",
          "total": "Total price to be paid"
        }
      },
      "owner()": {
        "details": "Returns the address of the current owner."
      },
      "renounceOwnership()": {
        "details": "Leaves the contract without owner. It will not be possible to call `onlyOwner` functions anymore. Can only be called by the current owner. NOTE: Renouncing ownership will leave the contract without an owner, thereby removing any functionality that is only available to the owner."
      },
      "setImpliedVolRate(uint256)": {
        "params": {
          "value": "New IVRate value"
        }
      },
      "setLockupPeriod(uint256)": {
        "params": {
          "value": "New period value"
        }
      },
      "setSettlementFeeRecipient(address)": {
        "params": {
          "recipient": "New settlementFee recipient address"
        }
      },
      "transferOwnership(address)": {
        "details": "Transfers ownership of the contract to a new account (`newOwner`). Can only be called by the current owner."
      },
      "unlock(uint256)": {
        "params": {
          "optionID": "ID of the option"
        }
      },
      "unlockAll(uint256[])": {
        "params": {
          "optionIDs": "array of options"
        }
      }
    },
    "title": "ETH Call Options",
    "version": 1
  },
  "userdoc": {
    "kind": "user",
    "methods": {
      "create(uint256,uint256,uint256)": {
        "notice": "Creates a new option"
      },
      "exercise(uint256)": {
        "notice": "Exercises an active option"
      },
      "fees(uint256,uint256,uint256)": {
        "notice": "Used for getting the actual options prices"
      },
      "setImpliedVolRate(uint256)": {
        "notice": "Used for adjusting the options prices while balancing asset's  volatility rate"
      },
      "setLockupPeriod(uint256)": {
        "notice": "Used for changing the lockup period"
      },
      "setSettlementFeeRecipient(address)": {
        "notice": "Used for changing settlementFeeRecipient"
      },
      "transferPoolOwnership()": {
        "notice": "Can be used to update the contract in critical situations in the first 90 days after deployment"
      },
      "unlock(uint256)": {
        "notice": "Unlock funds locked in the expired options"
      },
      "unlockAll(uint256[])": {
        "notice": "Unlocks an array of options"
      }
    },
    "notice": "ETH Call Options Contract",
    "version": 1
  },
  "storageLayout": {
    "storage": [
      {
        "astId": 55,
        "contract": "contracts/FuturesCallOptions.sol:FuturesCallOptions",
        "label": "_owner",
        "offset": 0,
        "slot": "0",
        "type": "t_address"
      },
      {
        "astId": 2617,
        "contract": "contracts/FuturesCallOptions.sol:FuturesCallOptions",
        "label": "settlementFeeRecipient",
        "offset": 0,
        "slot": "1",
        "type": "t_address_payable"
      },
      {
        "astId": 2621,
        "contract": "contracts/FuturesCallOptions.sol:FuturesCallOptions",
        "label": "options",
        "offset": 0,
        "slot": "2",
        "type": "t_array(t_struct(Option)2677_storage)dyn_storage"
      },
      {
        "astId": 2623,
        "contract": "contracts/FuturesCallOptions.sol:FuturesCallOptions",
        "label": "impliedVolRate",
        "offset": 0,
        "slot": "3",
        "type": "t_uint256"
      },
      {
        "astId": 2628,
        "contract": "contracts/FuturesCallOptions.sol:FuturesCallOptions",
        "label": "contractCreationTimestamp",
        "offset": 0,
        "slot": "4",
        "type": "t_uint256"
      },
      {
        "astId": 2631,
        "contract": "contracts/FuturesCallOptions.sol:FuturesCallOptions",
        "label": "priceProvider",
        "offset": 0,
        "slot": "5",
        "type": "t_contract(AggregatorInterface)47"
      },
      {
        "astId": 2634,
        "contract": "contracts/FuturesCallOptions.sol:FuturesCallOptions",
        "label": "optionType",
        "offset": 20,
        "slot": "5",
        "type": "t_enum(OptionType)2663"
      },
      {
        "astId": 1504,
        "contract": "contracts/FuturesCallOptions.sol:FuturesCallOptions",
        "label": "pool",
        "offset": 0,
        "slot": "6",
        "type": "t_contract(FuturesETHPool)2604"
      }
    ],
    "types": {
      "t_address": {
        "encoding": "inplace",
        "label": "address",
        "numberOfBytes": "20"
      },
      "t_address_payable": {
        "encoding": "inplace",
        "label": "address payable",
        "numberOfBytes": "20"
      },
      "t_array(t_struct(Option)2677_storage)dyn_storage": {
        "base": "t_struct(Option)2677_storage",
        "encoding": "dynamic_array",
        "label": "struct FuturesOptions.Option[]",
        "numberOfBytes": "32"
      },
      "t_contract(AggregatorInterface)47": {
        "encoding": "inplace",
        "label": "contract AggregatorInterface",
        "numberOfBytes": "20"
      },
      "t_contract(FuturesETHPool)2604": {
        "encoding": "inplace",
        "label": "contract FuturesETHPool",
        "numberOfBytes": "20"
      },
      "t_enum(OptionType)2663": {
        "encoding": "inplace",
        "label": "enum FuturesOptions.OptionType",
        "numberOfBytes": "1"
      },
      "t_enum(State)2660": {
        "encoding": "inplace",
        "label": "enum FuturesOptions.State",
        "numberOfBytes": "1"
      },
      "t_struct(Option)2677_storage": {
        "encoding": "inplace",
        "label": "struct FuturesOptions.Option",
        "members": [
          {
            "astId": 2666,
            "contract": "contracts/FuturesCallOptions.sol:FuturesCallOptions",
            "label": "state",
            "offset": 0,
            "slot": "0",
            "type": "t_enum(State)2660"
          },
          {
            "astId": 2668,
            "contract": "contracts/FuturesCallOptions.sol:FuturesCallOptions",
            "label": "holder",
            "offset": 1,
            "slot": "0",
            "type": "t_address_payable"
          },
          {
            "astId": 2670,
            "contract": "contracts/FuturesCallOptions.sol:FuturesCallOptions",
            "label": "strike",
            "offset": 0,
            "slot": "1",
            "type": "t_uint256"
          },
          {
            "astId": 2672,
            "contract": "contracts/FuturesCallOptions.sol:FuturesCallOptions",
            "label": "amount",
            "offset": 0,
            "slot": "2",
            "type": "t_uint256"
          },
          {
            "astId": 2674,
            "contract": "contracts/FuturesCallOptions.sol:FuturesCallOptions",
            "label": "premium",
            "offset": 0,
            "slot": "3",
            "type": "t_uint256"
          },
          {
            "astId": 2676,
            "contract": "contracts/FuturesCallOptions.sol:FuturesCallOptions",
            "label": "expiration",
            "offset": 0,
            "slot": "4",
            "type": "t_uint256"
          }
        ],
        "numberOfBytes": "160"
      },
      "t_uint256": {
        "encoding": "inplace",
        "label": "uint256",
        "numberOfBytes": "32"
      }
    }
  }
}